{
  "abi": [
    {
      "inputs": [
        {
          "internalType": "address",
          "name": "wormholeAddress",
          "type": "address"
        },
        {
          "internalType": "bytes32",
          "name": "_messageSender",
          "type": "bytes32"
        },
        {
          "internalType": "uint16",
          "name": "_chainId",
          "type": "uint16"
        }
      ],
      "stateMutability": "nonpayable",
      "type": "constructor"
    },
    {
      "inputs": [],
      "name": "ETHEREUM_CHAIN_ID",
      "outputs": [
        {
          "internalType": "uint16",
          "name": "",
          "type": "uint16"
        }
      ],
      "stateMutability": "view",
      "type": "function"
    },
    {
      "inputs": [],
      "name": "EXPECTED_MESSAGE_PAYLOAD_VERSION",
      "outputs": [
        {
          "internalType": "bytes32",
          "name": "",
          "type": "bytes32"
        }
      ],
      "stateMutability": "view",
      "type": "function"
    },
    {
      "inputs": [],
      "name": "MESSAGE_TIME_OUT_SECONDS",
      "outputs": [
        {
          "internalType": "uint256",
          "name": "",
          "type": "uint256"
        }
      ],
      "stateMutability": "view",
      "type": "function"
    },
    {
      "inputs": [],
      "name": "NAME",
      "outputs": [
        {
          "internalType": "string",
          "name": "",
          "type": "string"
        }
      ],
      "stateMutability": "view",
      "type": "function"
    },
    {
      "inputs": [],
      "name": "chainId",
      "outputs": [
        {
          "internalType": "uint16",
          "name": "",
          "type": "uint16"
        }
      ],
      "stateMutability": "view",
      "type": "function"
    },
    {
      "inputs": [],
      "name": "messageSender",
      "outputs": [
        {
          "internalType": "bytes32",
          "name": "",
          "type": "bytes32"
        }
      ],
      "stateMutability": "view",
      "type": "function"
    },
    {
      "inputs": [],
      "name": "nextMinimumSequence",
      "outputs": [
        {
          "internalType": "uint64",
          "name": "",
          "type": "uint64"
        }
      ],
      "stateMutability": "view",
      "type": "function"
    },
    {
      "inputs": [
        {
          "internalType": "bytes",
          "name": "whMessage",
          "type": "bytes"
        }
      ],
      "name": "receiveMessage",
      "outputs": [],
      "stateMutability": "payable",
      "type": "function"
    }
  ],
  "bytecode": {
    "object": "0x60e0604052600080546001600160401b031916905534801561002057600080fd5b5060405161125638038061125683398101604081905261003f9161016f565b6001600160a01b03831661009a5760405162461bcd60e51b815260206004820152601860248201527f496e76616c696420776f726d686f6c652061646472657373000000000000000060448201526064015b60405180910390fd5b81158015906100b157506001600160a01b03198216155b6100fd5760405162461bcd60e51b815260206004820152601760248201527f496e76616c69642073656e64657220636f6e74726163740000000000000000006044820152606401610091565b60011961ffff8216016101525760405162461bcd60e51b815260206004820152601860248201527f496e76616c696420636861696e496420457468657265756d00000000000000006044820152606401610091565b6001600160a01b0390921660c05260805261ffff1660a0526101c5565b60008060006060848603121561018457600080fd5b83516001600160a01b038116811461019b57600080fd5b60208501516040860151919450925061ffff811681146101ba57600080fd5b809150509250925092565b60805160a05160c051611054610202600039600061020901526000818161011a015261057c01526000818161017001526102d101526110546000f3fe60806040526004361061007b5760003560e01c8063a3f4df7e1161004e578063a3f4df7e1461013c578063d67bdd251461015e578063e9fa316214610192578063f953cec7146101a957600080fd5b80630e2ebcb8146100805780631dac56d3146100a85780637b305b32146100d05780639a8a059214610108575b600080fd5b34801561008c57600080fd5b506100956101be565b6040519081526020015b60405180910390f35b3480156100b457600080fd5b506100bd600281565b60405161ffff909116815260200161009f565b3480156100dc57600080fd5b506000546100f0906001600160401b031681565b6040516001600160401b03909116815260200161009f565b34801561011457600080fd5b506100bd7f000000000000000000000000000000000000000000000000000000000000000081565b34801561014857600080fd5b506101516101e6565b60405161009f9190610812565b34801561016a57600080fd5b506100957f000000000000000000000000000000000000000000000000000000000000000081565b34801561019e57600080fd5b506100956202a30081565b6101bc6101b7366004610845565b610202565b005b6040516020016101cd906108b6565b6040516020818303038152906040528051906020012081565b604051806060016040528060218152602001610ffe6021913981565b60008060007f00000000000000000000000000000000000000000000000000000000000000006001600160a01b031663c0fd8bde86866040518363ffffffff1660e01b81526004016102559291906109ad565b600060405180830381865afa158015610272573d6000803e3d6000fd5b505050506040513d6000823e601f3d908101601f1916820160405261029a9190810190610c0f565b9250925092508181906102c95760405162461bcd60e51b81526004016102c09190610812565b60405180910390fd5b5082608001517f00000000000000000000000000000000000000000000000000000000000000001461033d5760405162461bcd60e51b815260206004820152601860248201527f496e76616c696420456d6974746572204164647265737321000000000000000060448201526064016102c0565b606083015161ffff1660021461038d5760405162461bcd60e51b815260206004820152601560248201527424b73b30b634b21022b6b4ba3a32b91021b430b4b760591b60448201526064016102c0565b60005460a08401516001600160401b03918216911610156103f05760405162461bcd60e51b815260206004820152601760248201527f496e76616c69642053657175656e6365206e756d62657200000000000000000060448201526064016102c0565b60a0830151610400906001610d7c565b6000805467ffffffffffffffff19166001600160401b03929092169190911790556020830151429061043c906202a3009063ffffffff16610da3565b101561048a5760405162461bcd60e51b815260206004820152601760248201527f4d657373616765206e6f206c6f6e6765722076616c696400000000000000000060448201526064016102c0565b6000806000806000808860e001518060200190518101906104ab9190610eb9565b955095509550955095509550856040516020016104c7906108b6565b60405160208183030381529060405280519060200120146105225760405162461bcd60e51b81526020600482015260156024820152742bb937b733903830bcb637b0b2103b32b939b4b7b760591b60448201526064016102c0565b6001600160a01b038216301461057a5760405162461bcd60e51b815260206004820152601960248201527f4d657373616765206e6f7420666f72207468697320646573740000000000000060448201526064016102c0565b7f000000000000000000000000000000000000000000000000000000000000000061ffff168161ffff16146105f15760405162461bcd60e51b815260206004820152601a60248201527f4d657373616765206e6f7420666f72207468697320636861696e00000000000060448201526064016102c0565b84518351811480156106035750845181145b61064f5760405162461bcd60e51b815260206004820152601d60248201527f496e636f6e73697374656e7420617267756d656e74206c656e6774687300000060448201526064016102c0565b610658856107a4565b6106965760405162461bcd60e51b815260206004820152600f60248201526e496e636f72726563742076616c756560881b60448201526064016102c0565b60005b818110156107955760008782815181106106b5576106b5610fcb565b60200260200101516001600160a01b03168783815181106106d8576106d8610fcb565b60200260200101518784815181106106f2576106f2610fcb565b60200260200101516040516107079190610fe1565b60006040518083038185875af1925050503d8060008114610744576040519150601f19603f3d011682016040523d82523d6000602084013e610749565b606091505b505090508061078c5760405162461bcd60e51b815260206004820152600f60248201526e14dd588b58d85b1b0819985a5b1959608a1b60448201526064016102c0565b50600101610699565b50505050505050505050505050565b80516000908190815b818110156107e4578481815181106107c7576107c7610fcb565b6020026020010151836107da9190610da3565b92506001016107ad565b5050341492915050565b60005b838110156108095781810151838201526020016107f1565b50506000910152565b60208152600082518060208401526108318160408501602087016107ee565b601f01601f19169190910160400192915050565b6000806020838503121561085857600080fd5b82356001600160401b038082111561086f57600080fd5b818501915085601f83011261088357600080fd5b81358181111561089257600080fd5b8660208285010111156108a457600080fd5b60209290920196919550909350505050565b602080825260c09082018190527f556e6973776170576f726d686f6c654d65737361676553656e6465725631202860408301527f627974657333322072656365697665644d6573736167655061796c6f6164566560608301527f7273696f6e2c20616464726573735b5d206d656d6f727920746172676574732c60808301527f2075696e743235365b5d206d656d6f72792076616c7565732c2062797465735b60a08301527f5d206d656d6f72792064617461732c2061646472657373206d65737361676552908201527f656365697665722c2075696e743136207265636569766572436861696e49642960e08201526101000190565b60208152816020820152818360408301376000818301604090810191909152601f909201601f19160101919050565b634e487b7160e01b600052604160045260246000fd5b604051608081016001600160401b0381118282101715610a1457610a146109dc565b60405290565b60405161016081016001600160401b0381118282101715610a1457610a146109dc565b604051601f8201601f191681016001600160401b0381118282101715610a6557610a656109dc565b604052919050565b805160ff81168114610a7e57600080fd5b919050565b805163ffffffff81168114610a7e57600080fd5b805161ffff81168114610a7e57600080fd5b80516001600160401b0381168114610a7e57600080fd5b600082601f830112610ad157600080fd5b81516001600160401b03811115610aea57610aea6109dc565b610afd601f8201601f1916602001610a3d565b818152846020838601011115610b1257600080fd5b610b238260208301602087016107ee565b949350505050565b60006001600160401b03821115610b4457610b446109dc565b5060051b60200190565b600082601f830112610b5f57600080fd5b81516020610b74610b6f83610b2b565b610a3d565b82815260079290921b84018101918181019086841115610b9357600080fd5b8286015b84811015610bf45760808189031215610bb05760008081fd5b610bb86109f2565b8151815284820151858201526040610bd1818401610a6d565b908201526060610be2838201610a6d565b90820152835291830191608001610b97565b509695505050505050565b80518015158114610a7e57600080fd5b600080600060608486031215610c2457600080fd5b83516001600160401b0380821115610c3b57600080fd5b908501906101608288031215610c5057600080fd5b610c58610a1a565b610c6183610a6d565b8152610c6f60208401610a83565b6020820152610c8060408401610a83565b6040820152610c9160608401610a97565b606082015260808301516080820152610cac60a08401610aa9565b60a0820152610cbd60c08401610a6d565b60c082015260e083015182811115610cd457600080fd5b610ce089828601610ac0565b60e083015250610100610cf4818501610a83565b908201526101208381015183811115610d0c57600080fd5b610d188a828701610b4e565b918301919091525061014083810151908201529450610d3960208701610bff565b93506040860151915080821115610d4f57600080fd5b50610d5c86828701610ac0565b9150509250925092565b634e487b7160e01b600052601160045260246000fd5b6001600160401b03818116838216019080821115610d9c57610d9c610d66565b5092915050565b80820180821115610db657610db6610d66565b92915050565b6001600160a01b0381168114610dd157600080fd5b50565b600082601f830112610de557600080fd5b81516020610df5610b6f83610b2b565b82815260059290921b84018101918181019086841115610e1457600080fd5b8286015b84811015610bf45780518352918301918301610e18565b600082601f830112610e4057600080fd5b81516020610e50610b6f83610b2b565b82815260059290921b84018101918181019086841115610e6f57600080fd5b8286015b84811015610bf45780516001600160401b03811115610e925760008081fd5b610ea08986838b0101610ac0565b845250918301918301610e73565b8051610a7e81610dbc565b60008060008060008060c08789031215610ed257600080fd5b865195506020808801516001600160401b0380821115610ef157600080fd5b818a0191508a601f830112610f0557600080fd5b8151610f13610b6f82610b2b565b81815260059190911b8301840190848101908d831115610f3257600080fd5b938501935b82851015610f59578451610f4a81610dbc565b82529385019390850190610f37565b60408d0151909a509450505080831115610f7257600080fd5b610f7e8b848c01610dd4565b965060608a0151925080831115610f9457600080fd5b5050610fa289828a01610e2f565b935050610fb160808801610eae565b9150610fbf60a08801610a97565b90509295509295509295565b634e487b7160e01b600052603260045260246000fd5b60008251610ff38184602087016107ee565b919091019291505056fe556e697377617020576f726d686f6c65204d657373616765205265636569766572a2646970667358221220a3df8baeaccd7f61424e79908a0c8b1f6456a77c61abcdc48eca5c9237f8259c64736f6c63430008130033",
    "linkReferences": {}
  },
  "methodIdentifiers": {
    "ETHEREUM_CHAIN_ID()": "1dac56d3",
    "EXPECTED_MESSAGE_PAYLOAD_VERSION()": "0e2ebcb8",
    "MESSAGE_TIME_OUT_SECONDS()": "e9fa3162",
    "NAME()": "a3f4df7e",
    "chainId()": "9a8a0592",
    "messageSender()": "d67bdd25",
    "nextMinimumSequence()": "7b305b32",
    "receiveMessage(bytes)": "f953cec7"
  },
  "id": 37
}